:100000000C94E5000C942C0B0C94530B0C940D01E8
:100010000C940D010C940D010C940D010C940D0128
:100020000C940D010C940D010C940D010C940D0118
:100030000C940D010C940D010C940D010C940D0108
:100040000C94C30D0C940D010C94EE090C94200A31
:100050000C940D010C940D010C940D010C940D01E8
:100060000C940D010C940D0100407A10F35A00A07D
:10007000724E18090010A5D4E80000E87648170071
:1000800000E40B54020000CA9A3B000000E1F505B1
:10009000000080969800000040420F000000A086FB
:1000A00001000000102700000000E803000000002D
:1000B0006400000000000A000000000001000000D1
:1000C00000002C76D888DC674F0823DFC1DFAE59EB
:1000D000E1B1B796E5E3E453C63AE651997696E87E
:1000E000E6C28426EB898C9B62ED407C6FFCEFBC02
:1000F0009C9F40F2BAA56FA5F490055A2AF75C932D
:100100006B6CF9676DC11BFCE0E40D47FEF520E662
:10011000B500D0ED902E0300943577050080841E45
:10012000080000204E0A000000C80C333333330FA0
:10013000986E12831141EF8D2114893BE65516CF3D
:10014000FEE6DB18D1844B381BF77C1D901DA4BB49
:10015000E424203284725E228100C9F124ECA1E5FE
:100160003D2700000009000302000004050800000C
:100170000000000000000000000102040810204000
:100180008001020408102001020408102040804071
:10019000040404040404040402020202020203032D
:1001A00003030303020203000000002300260029CA
:1001B0000000000000250028002B000000000024A3
:1001C0000027002A00008901500A11241FBECFEF2A
:1001D000D4E0DEBFCDBF12E0A0E0B1E0EAEEF3E391
:1001E00002C005900D92A434B107D9F723E0A4E42E
:1001F000B2E001C01D92AB39B207E1F710E0C5EEE5
:10020000D0E004C02197FE010E947912C33ED107BD
:10021000C9F70E94B40D0C94F3190C94000026E069
:1002200040E052EC61E070E081EF92E00E949609BC
:1002300084E492E00E9433084DEC5CEC6CE47FE3D4
:1002400084E492E00C94FB04CF92DF92EF92FF9251
:10025000CF93DF93CDB7DEB762970FB6F894DEBFCA
:100260000FBECDBF84E492E00E94D2046B017C01FA
:1002700084E492E00E942603BC0184E492E00E94A0
:100280004E03AB01BC0122E0CE0101960E942A0D73
:1002900022E0B701A601CE010D960E942A0DBE01F3
:1002A000635F7F4FCE0107960E94120D63E171E0FC
:1002B000CE0107960E94990DBE016F5F7F4F0E948D
:1002C000860D66E171E00E94990DBC0181EF92E01C
:1002D0000E94DA0ACE0107960E94BB0BCE010D9652
:1002E0000E94BB0BCE0101960E94BB0B6AE070E03E
:1002F00080E090E00E943E0E62960FB6F894DEBF5A
:100300000FBECDBFDF91CF91FF90EF90DF90CF90E8
:10031000089546E06EE084E492E00C9445020C946B
:10032000AD0F0E94AD0F21E030E0892B11F030E0DD
:1003300020E0C90108950C949F0ECF93DF93EB0149
:100340000E949F0E9E01281B390BC901DF91CF919E
:1003500008954F925F926F927F928F929F92AF9289
:10036000BF92CF92DF92EF92FF920F931F93CF93A2
:10037000DF9300D000D000D0CDB7DEB79E838D8351
:100380002A013B0109831A832B833C83DC015496A9
:100390004D925D926D927C925797D901C801ED8183
:1003A000FE81808F918FA28FB38FE088F188628960
:1003B00073896E197F0990E080E00E94EA104B017A
:1003C0005C01B70190E080E00E94EA106B017C01C3
:1003D00020E030E04AE754E4C301B2010E94491032
:1003E000A50194010E94A111A70196010E94D80FB6
:1003F0000E94BB10762E672EAD81BE815C966C93F9
:100400005C975D967C9320E030E04AE754E4698194
:100410007A818B819C810E944910A50194010E94E0
:10042000A111A70196010E94D80F0E94BB10ED8177
:10043000FE81668F778F7F936F936F927F9288E1B3
:1004400091E09F938F9381EF92E09F938F930E940F
:10045000030B0FB6F894DEBF0FBECDBF26960FB6C6
:10046000F894DEBF0FBECDBFDF91CF911F910F91EA
:10047000FF90EF90DF90CF90BF90AF909F908F90C4
:100480007F906F905F904F9008950F931F93FC01A2
:1004900010821182128211861086128613861486AB
:1004A000158617861686118A108A81E090E0938B54
:1004B000828B148A158A168A178A00E010E02AE7D0
:1004C00034E4008F118F228F338F158E148E978F07
:1004D000868F11A210A28FEF82A314A213A215A2DD
:1004E00017A216A211A610A68FEF9FEF93A782A7BF
:1004F00015A614A616A617A610AA11AA12AA13AA20
:1005000014AA80E090E0A0EAB0E487AB90AFA1AF7E
:10051000B2AF13AE14AE15AE16AEDF01DF96119674
:100520001C921E9212961C9211961C92199611966C
:100530001C921E92129682E390E011969C938E93E9
:10054000129611961C921E9212961D921D921D9249
:100550001C92139714961D921D921D921C92139734
:1005600014961D921D921D921C92139714961D9223
:100570001D921D921C92139714961C9281E0119665
:100580008C93119713961C921E92129715961C929B
:100590001E92149716961D921D921D921C921997E9
:1005A0001B961C921E921A971D961C921E921C97C7
:1005B0001E961C921E971F961C921F9751961C9276
:1005C0001E92509753961C921E92529755961C92CB
:1005D0001E92549757961C921E92569759961C92AB
:1005E0001E9258975B961C921E925A975D961C928B
:1005F0001E925C9784E690E05F969C938E935E9744
:10060000638350E055834483CA019595879587702D
:100610008683440F452F441F550B81E048274170C6
:1006200047831F910F910895DC019696ED91FC91FF
:100630009797309739F052966D917C915397139616
:100640008C91099418968D919C910895FC01808558
:1006500091850895FC0182818823D1F0718760879C
:10066000978183812681211109C021E0672B09F43C
:1006700020E061E0291360E00C947F0F911106C027
:1006800022893389A901461B570BBA010C94BD0E70
:100690000895FC01648D758D0C942A03CF93DF932C
:1006A000EC0190E080E00E94EA102FA938AD49AD3E
:1006B0005AAD0E94A1112BAD3CAD4DAD5EAD0E9477
:1006C000D80FDF91CF9108952F923F924F925F9272
:1006D0006F927F928F929F92AF92BF92CF92DF9252
:1006E000EF92FF920F931F93CF93DF93EC018B0157
:1006F000FC01EF5BFF4F208131963081211116C044
:1007000031112CC0C801DF91CF911F910F91FF9043
:10071000EF90DF90CF90BF90AF909F908F907F90A1
:100720006F905F904F903F902F900895213009F087
:1007300051C081E090E0FE01EB5BFF4F40815181B1
:100740004617570710F090E080E04A895B89849F44
:100750008001859F100D949F100D1124AE01415C06
:100760005F4F4A01313009F053C0C95BDF4FC88089
:10077000D980EA80FB80DA016D917C9190E080E085
:100780000E94EA10A70196010E94A1112B013C01D1
:10079000A701960160E070E080E89FE30E94D70F18
:1007A0006B017C01B80190E080E00E94EA109B019F
:1007B000AC01C701B6010E94A1119B01AC01C301AC
:1007C000B2010E94D80F0E94BB108B01F40171830B
:1007D000608398CF223011F64A895B89FC01FF962D
:1007E00080819181892B49F081E03496608171810B
:1007F0000617170758F480E009C081E0FE01EB5BA3
:10080000FF4F6081718160177107A8F790E09FCF5B
:10081000323009F0C3C0AE01415B5F4F1A012111B4
:1008200021C04A885B88712C612C888999899C0138
:1008300050E040E0B80190E080E0D101ED91FC9102
:1008400031976F011F921F92DF92EF93A12CB12C71
:100850006501830172010E947A0B8B010F900F904A
:100860000F900F901EA618AA1FA63E01BBE46B0EA8
:10087000711CF301808191819E012F5A3F4F290104
:100880008017910771F10E940D0ED2016D937D9337
:100890008D939C931397D3010D931C93A888B988CB
:1008A000D12CC12CF101E080F180F1E0EF1AF108C8
:1008B00010E000E0D4016D917C9190E080E02A8905
:1008C0003B8929011F921F925F922F9320E030E015
:1008D000A9010E947A0B8B010F900F900F900F903F
:1008E00011CF0E940D0EF201C080D180E280F38012
:1008F000AB01BC014C195D096E097F09FE01E35B88
:10090000FF4F80819181B0E0A0E084179507A60792
:10091000B70708F6D4018D919C918017910709F4CF
:10092000BACF0E940D0EDE01A75ABF4FFE01EB5A4F
:10093000FF4FC080D180E280F3809B01AC012C1975
:100940003D094E095F0969017A01CD92DD92ED9270
:10095000FC9213976083718382839383D4018D917A
:100960009C9121E00817190708F020E028AB21E04E
:100970008017910708F020E02FA721E02EA7FE01A5
:10098000E35AFF4FB0E0A0E080839183A283B3835A
:10099000F401118300831DA70CA77DCFFA011183F9
:1009A0000083B0CECF93DF93EC010E941403BC010F
:1009B00088877987FE01EF5BFF4F2081211104C0FA
:1009C00031962081222319F0CE010E946403BC01DC
:1009D00090E080E00E94EA102FA938AD49AD5AADF1
:1009E0000E94A1112BAD3CAD4DAD5EAD0E94D80F64
:1009F000DF91CF910895FC01EE5BFF4F21E0208352
:100A000035964083518362837383CF96FC011182B4
:100A1000108208958F929F92AF92BF92CF92DF92F1
:100A2000EF92FF920F931F93CF93DF93EC016A0134
:100A30007B015901AB019601C501B8010E949C11CF
:100A4000181634F49501B701A601CE010E94A90140
:100A5000DF91CF911F910F91FF90EF90DF90CF909A
:100A6000BF90AF909F908F9008958F929F92AF927A
:100A7000BF92CF92DF92EF92FF920F931F93CF938B
:100A8000DF93EC016A017B01C901B801A70196015E
:100A90000E94D70F4B015C016A897B8988899989FB
:100AA000681B790B90E080E00E94EA109B01AC018A
:100AB000C501B4010E9449104B015C0120E030E007
:100AC000A9010E944410882341F08FAA98AEA9AED4
:100AD000BAAECBAEDCAEEDAEFEAEDF91CF911F91E4
:100AE0000F91FF90EF90DF90CF90BF90AF909F90CD
:100AF0008F9008954F925F926F927F928F929F9204
:100B0000AF92BF92CF92DF92EF92FF920F931F931B
:100B1000CF93DF93EC01798B688B5B8B4A8B3F879C
:100B20002E87EA86FB860C871D87088D198D2A8DF6
:100B30003B8D4C895D896E897F890E940A058FA84B
:100B400098ACA9ACBAACCBACDCACEDACFEAC6E8D69
:100B50007F8D90E080E00E94EA10A50194010E9440
:100B6000A111A70196010E94D80F2B013C016C8DA9
:100B70007D8D90E080E00E94EA10A50194010E9422
:100B8000A111A70196010E94D80FAB01BC019301EE
:100B90008201CE010E9435058B898F938A898F93BC
:100BA00089898F9388898F938CE191E09F938F93AC
:100BB00081EF92E09F938F930E94030B8DB79EB7B6
:100BC00008960FB6F8949EBF0FBE8DBFDF91CF91F0
:100BD0001F910F91FF90EF90DF90CF90BF90AF905B
:100BE0009F908F907F906F905F904F900895EF92BD
:100BF000FF920F931F93CF93DF93EC0119821A8218
:100C00001FA21EA219A218A2FC01EE5BFF4F1082C8
:100C1000319710821DA28FEF9FEF9BA78AA700E05C
:100C200010E02AE734E440E050E0BA01CE010E942F
:100C3000A901E12CF12C870121E030E041E050E0F6
:100C400070E060E0CE010E947A0500E010E020EA4A
:100C500030E440E050E0BA01CE010E943505EB815E
:100C600080E0E63140F4F0E0EE0FFF1FEB53FD4F64
:100C7000D183C08381E0DF91CF911F910F91FF90CD
:100C8000EF900895EF92FF920F931F93FC0142891A
:100C9000538914EFE12EFF24F39400E010E028E0E4
:100CA00030E070E060E00E947A0581E01F910F91D2
:100CB000FF90EF9008950F931F93CF93DF93CDB7DD
:100CC000DEB762970FB6F894DEBF0FBECDBF8C01C2
:100CD00067E371E081EF92E00E94EC0A4AE0F801DC
:100CE0006381CE0107960E94490C64E671E0CE0153
:100CF00001960E942A0CBE01695F7F4FCE010196CA
:100D00000E94860DBC0181EF92E00E94DA0ACE01BA
:100D100001960E94BB0BCE0107960E94BB0BF80107
:100D2000828163E472E0882311F060E371E0CE0118
:100D300001960E942A0CF801818163E472E0882305
:100D400011F064E371E0CE010D960E942A0C6BE66F
:100D500071E0CE0107960E942A0CBE01635F7F4FAF
:100D6000CE0107960E94860DBE016F5F7F4F0E94E5
:100D7000860DBC0181EF92E00E94DA0ACE0107964F
:100D80000E94BB0BCE010D960E94BB0BCE010196BB
:100D90000E94BB0BF801648175814AE0CE01079681
:100DA0000E94760C65E771E0CE0101960E942A0C44
:100DB000BE01695F7F4FCE0101960E94860DBC0186
:100DC00081EF92E00E94DA0ACE0101960E94BB0BED
:100DD000CE0107960E94BB0B4AE0F8016681CE0166
:100DE00007960E94490C6FE771E0CE0101960E94C0
:100DF0002A0CBE01695F7F4FCE0101960E94860DCD
:100E0000BC0181EF92E00E94DA0ACE0101960E94B5
:100E1000BB0BCE0107960E94BB0BF801678170E007
:100E20004AE0CE0107960E94760C69E871E0CE0197
:100E300001960E942A0CBE01695F7F4FCE01019688
:100E40000E94860DBC0181EF92E00E94DA0ACE0179
:100E500001960E94BB0BCE0107960E94BB0BF801C6
:100E600042855385648575852AE0CE0107960E94E8
:100E7000CE0C67E971E0CE0101960E942A0CBE01FA
:100E8000695F7F4FCE0101960E94860DBC0181EF04
:100E900092E00E94DA0ACE0101960E94BB0BCE01BD
:100EA00007960E94BB0BF801668577854AE0CE0164
:100EB00007960E94A20C6DEA71E0CE0101960E9495
:100EC0002A0CBE01695F7F4FCE0101960E94860DFC
:100ED000BC0181EF92E00E94DA0ACE0101960E94E5
:100EE000BB0BCE0107960E94BB0B4AE0F80162A142
:100EF000CE0107960E94490C64EC71E0CE01019688
:100F00000E942A0CBE01695F7F4FCE0101960E94AC
:100F1000860DBC0181EF92E00E94DA0ACE010196B3
:100F20000E94BB0BCE0107960E94BB0BF8016089A3
:100F300071894AE0CE0107960E94A20C60ED71E033
:100F4000CE0101960E942A0CBE01695F7F4FCE013F
:100F500001960E94860DBC0181EF92E00E94DA0AA0
:100F6000CE0101960E94BB0BCE0107960E94BB0BDF
:100F7000F801628973894AE0CE0107960E94A20CAB
:100F80006CED71E0CE0101960E942A0CBE01695FF2
:100F90007F4FCE0101960E94860DBC0181EF92E049
:100FA0000E94DA0ACE0101960E94BB0BCE01079681
:100FB0000E94BB0BF801448955896689778922E034
:100FC000CE0107960E942A0D68EE71E0CE010196CF
:100FD0000E942A0CBE01695F7F4FCE0101960E94DC
:100FE000860DBC0181EF92E00E94DA0ACE010196E3
:100FF0000E94BB0BCE0107960E94BB0BF801408DEF
:10100000518D628D738D22E0CE0107960E942A0DCC
:1010100065EF71E0CE0101960E942A0CBE01695F66
:101020007F4FCE0101960E94860DBC0181EF92E0B8
:101030000E94DA0ACE0101960E94BB0BCE010796F0
:101040000E94BB0B62E072E081EF92E00E94EC0A2A
:1010500062960FB6F894DEBF0FBECDBFDF91CF9181
:101060001F910F910895EF92FF920F931F93CF93CB
:10107000DF93EC010E94F705882399F08C8180FFB3
:1010800043C081E08A8361E08B810E94430F8E819F
:10109000823059F168F4882379F08130A9F0188200
:1010A00080E0DF91CF911F910F91FF90EF90089515
:1010B0008330E9F0863098F7CE010E944903CE01D3
:1010C0000E945B068881EDCFCE010E944206888394
:1010D000E12CF12C870128E030E04FEF50E070E088
:1010E00060E0CE010E947A05E7CF1882E5CF188232
:1010F00000E010E021E833E440E050E060E272E418
:10110000CE010E94A901D8CF81E089838E818230EF
:1011100099F0833099F060E08111C1CF8B810E94FA
:10112000430FEF81F0E0EE0FFF1FEA5FFE4F80817B
:1011300091819FA38EA3C3CF62E0F0CF60E08B814B
:101140000E94430FEF81F0E0EE0FFF1FE65FFE4FBE
:10115000808191819FA38EA3E12CF12C87012AE04D
:1011600030E04FEF53E070E060E0CE010E947A057E
:1011700000E010E020EA30E440E050E0BA01CE01A7
:101180000E9435059CCFFC01918D228D892F90E026
:10119000805C9F4F821B91098F7399270895FC01F2
:1011A000918D828D981731F0828DE80FF11D858D1C
:1011B00090E008958FEF9FEF0895FC01918D828D4F
:1011C000981761F0A28DAE0FBF2FB11D5D968C9167
:1011D000928D9F5F9F73928F90E008958FEF9FEFA6
:1011E0000895FC01538D448D252F30E0842F90E02D
:1011F000821B930B541710F0CF9608950197089512
:1012000086E49AE0892B49F080E090E0892B29F070
:101210000E94460A81110C9400000895FC01A48DDF
:10122000A80FB92FB11DA35ABF4F2C91848D90E008
:1012300001968F739927848FA689B7892C93A089EB
:10124000B1898C9180648C93938D848D981306C0A2
:101250000288F389E02D80818F7D80830895CF936C
:10126000DF93EC01888D8823B9F0AA89BB89E889CE
:10127000F9898C9185FD03C0808186FD0DC00FB674
:1012800007FCF7CF8C9185FFF2CF808185FFEDCFF2
:10129000CE010E940E09E9CFDF91CF910895EF9220
:1012A000FF920F931F93CF93DF93EC0181E0888F20
:1012B0009B8D8C8D981316C0E889F989808185FFF4
:1012C00011C0EE89FF896083E889F9898081806493
:1012D000808381E090E0DF91CF911F910F91FF908B
:1012E000EF900895F62E0B8D10E00F5F1F4F0F73D8
:1012F0001127E02E8C8D8E110CC00FB607FCFACF93
:10130000E889F989808185FFF5CFCE010E940E0919
:10131000F1CFEB8DEC0FFD2FF11DE35AFF4FF08263
:101320000B8FEA89FB8980818062D2CFCF92DF92D6
:10133000EF92FF921F93CF93DF93EC016A017B0141
:10134000122FE889F98982E08083C11481EED806E2
:10135000E104F104A1F060E079E08DE390E0A70101
:1013600096010E941E1221503109410951095695DA
:10137000479537952795211580E1380798F0E8893A
:10138000F989108260E874E88EE190E0A701960187
:101390000E941E1221503109410951095695479565
:1013A00037952795EC85FD853083EE85FF85208375
:1013B000188EEC89FD891083EA89FB898081886910
:1013C0008083EA89FB8980818F7D8083DF91CF9143
:1013D0001F91FF90EF90DF90CF9008951F920F9292
:1013E0000FB60F9211242F938F939F93EF93FF9338
:1013F000E0910103F09102038081E0910703F091F5
:10140000080382FD1BC0908180910A038F5F8F7358
:1014100020910B03821741F0E0910A03F0E0EF50B6
:10142000FD4F958F80930A03FF91EF919F918F91CC
:101430002F910F900FBE0F901F9018958081F4CFC1
:101440001F920F920FB60F9211242F933F934F9339
:101450005F936F937F938F939F93AF93BF93EF931C
:10146000FF9381EF92E00E940E09FF91EF91BF91EF
:10147000AF919F918F917F916F915F914F913F912C
:101480002F910F900FBE0F901F90189581EF92E053
:101490000E94C30821E0892B09F420E0822F0895DF
:1014A000E1EFF2E01382128288EE93E0A0E0B0E078
:1014B00084839583A683B78383E392E091838083BB
:1014C00085EC90E09587848784EC90E09787868709
:1014D00080EC90E0918B808B81EC90E0938B828B01
:1014E00082EC90E0958B848B86EC90E0978B868BDA
:1014F000118E128E138E148E0895AF92BF92CF92DA
:10150000DF92EF92FF920F931F93CF93DF936C01C3
:101510007B018B01040F151FEB015E01AE18BF08A4
:10152000C017D10759F06991D601ED91FC91019056
:10153000F081E02DC6010995892B79F7C501DF916E
:10154000CF911F910F91FF90EF90DF90CF90BF90C0
:10155000AF900895FB01A485B585ED91FC9111979D
:101560000190F081E02D682FCD01099590E080E099
:101570000895FB0101900020E9F73197AF01461B68
:10158000570BDC01ED91FC910280F381E02D099471
:10159000DB0114964D915C9115976D917C91DC0166
:1015A000ED91FC910280F381E02D099461E472E0F9
:1015B0000C94B90A0F931F93CF93DF93EC010E9411
:1015C000C80A8C01CE010E94D60A800F911FDF91BC
:1015D000CF911F910F9108950F931F93CF93DF9396
:1015E0008C01D0E0C0E06115710519F00E94B90AC4
:1015F000EC01C8010E94D60A8C0F9D1FDF91CF918C
:101600001F910F910895CF93DF93CDB7DEB72E973B
:101610000FB6F894DEBF0FBECDBF8AEA9AE09A8774
:1016200089871C861B8682E08C838B899C899E8798
:101630008D87AE01495E5F4F6D897E89CE0101962F
:101640000E94F7142E960FB6F894DEBF0FBECDBFE2
:10165000DF91CF91089508951F920F920FB60F92C8
:1016600011242F933F934F935F936F937F938F93A7
:101670009F93AF93BF93EF93FF93E0910E01F0918F
:101680000F010995FF91EF91BF91AF919F918F91BC
:101690007F916F915F914F913F912F910F900FBE6E
:1016A0000F901F9018951F920F920FB60F92112452
:1016B0002F933F934F935F936F937F938F939F935A
:1016C000AF93BF93EF93FF93E0911001F09111015D
:1016D0000995FF91EF91BF91AF919F918F917F916C
:1016E0006F915F914F913F912F910F900FBE0F908F
:1016F0001F9018954F925F926F927F92AF92BF9218
:10170000CF92DF92EF92FF920F931F93CF93DF93CD
:10171000CDB7DEB729013A019B01AC012419350987
:101720004609570989899A89AB89BC89BC01CD01D1
:101730006A197B098C099D090E940E12A801970164
:1017400024193509460957090E944012CA01B901F6
:101750006A0D7B1D8C1D9D1DDF91CF911F910F91F7
:10176000FF90EF90DF90CF90BF90AF907F906F9001
:101770005F904F900895FC01808191810C94391302
:10178000CF93DF93EC0188819981009711F00E943B
:101790003913198218821D821C821B821A82DF91E2
:1017A000CF9108950F931F93CF93DF93EC018B019B
:1017B0006F5F7F4F888199810E94C213009751F01B
:1017C000998388831B830A8381E0DF91CF911F91E6
:1017D0000F91089580E0F9CFCF93DF93EC018881DA
:1017E0009981892B49F08A819B818617970720F080
:1017F00081E0DF91CF910895CE010E94D20B882322
:10180000C1F38C819D81892B99F7E881F981108240
:10181000EFCFEF92FF920F931F93CF93DF93EC01E3
:101820007B018A01BA010E94EC0B81110BC0CE0131
:101830000E94C00BCE01DF91CF911F910F91FF90BD
:10184000EF9008951D830C83B701888199810E94D0
:101850008814F0CFFC01118210821382128215824B
:1018600014826115710551F0FB0101900020E9F728
:101870003197AF01461B570B0C94090C0895FB01DF
:1018800001900020E9F73197AF01461B570B0C94EC
:10189000090C0F931F93CF93DF93CDB7DEB7299732
:1018A0000FB6F894DEBF0FBECDBF8C01862FF801B6
:1018B00011821082138212821582148250E0BE01BE
:1018C0006F5F7F4F90E00E94D214BE016F5F7F4F29
:1018D000C8010E943F0C29960FB6F894DEBF0FBED8
:1018E000CDBFDF91CF911F910F9108950F931F935B
:1018F000CF93DF93CDB7DEB762970FB6F894DEBF14
:101900000FBECDBF8C01CB01F80111821082138272
:1019100012821582148250E0BE016F5F7F4F0E94D9
:101920008F14BE016F5F7F4FC8010E943F0C62960B
:101930000FB6F894DEBF0FBECDBFDF91CF911F91E0
:101940000F9108950F931F93CF93DF93CDB7DEB719
:1019500061970FB6F894DEBF0FBECDBF8C01CB01EF
:10196000F80111821082138212821582148250E0D3
:10197000BE016F5F7F4F0E94D214BE016F5F7F4F29
:10198000C8010E943F0C61960FB6F894DEBF0FBEEF
:10199000CDBFDF91CF911F910F9108950F931F93AA
:1019A000CF93DF93CDB7DEB7A1970FB6F894DEBF24
:1019B0000FBECDBF8C01CB01BA01F801118210829C
:1019C000138212821582148230E0AE014F5F5F4FA6
:1019D0000E94A514BE016F5F7F4FC8010E943F0C9B
:1019E000A1960FB6F894DEBF0FBECDBFDF91CF91A9
:1019F0001F910F910895CF93DF93EC01FB018617A0
:101A0000970749F0608171816115710541F044814A
:101A100055810E94090CCE01DF91CF9108950E945B
:101A2000C00BF9CFFC011182108213821282158241
:101A300014820C94FB0CCF93DF93EC0161157105BC
:101A400031F00E943F0CCE01DF91CF9108950E94AA
:101A5000C00BF9CFEF92FF920F931F93CF93DF93B9
:101A6000CDB7DEB7A1970FB6F894DEBF0FBECDBFDE
:101A70007C01CB01BA01F70111821082138212821C
:101A80001582148242E0420F8E010F5F1F4F0E94A9
:101A90007F12BC01C7010E941B0DA1960FB6F894DE
:101AA000DEBF0FBECDBFDF91CF911F910F91FF9091
:101AB000EF900895EF92FF920F931F93CF93DF93D0
:101AC0006115710541F480E0DF91CF911F910F9175
:101AD000FF90EF90089541155105B1F07B01EC01A5
:101AE0000C811D81040F151FB8010E94EC0B882387
:101AF00051F3288139818C819D81B701820F931F19
:101B00000E9488141D830C8381E0DECFCF93DF9386
:101B1000EC01FB0144815581608171810E945A0D65
:101B2000811103C0CE010E94C00BCE01DF91CF9185
:101B30000895CF93DF93EC016115710539F4CE015F
:101B40000E94C00BCE01DF91CF910895FB0101905F
:101B50000020E9F73197AF01461B570B0E945A0D41
:101B6000882369F3EFCF08950E94770E0E94B30D8A
:101B70000E940F01C0E0D9E00E9424012097E1F308
:101B80000E940009F9CF1F920F920FB60F921124F5
:101B90002F933F938F939F93AF93BF938091930322
:101BA00090919403A0919503B09196033091920384
:101BB00023E0230F2D3768F126E8230F0296A11D9D
:101BC000B11D209392038093930390939403A09369
:101BD0009503B093960380918E0390918F03A0910B
:101BE0009003B09191030196A11DB11D80938E03C6
:101BF00090938F03A0939003B0939103BF91AF9103
:101C00009F918F913F912F910F900FBE0F901F903A
:101C100018950196A11DB11DD4CF2FB7F8946091EE
:101C200093037091940380919503909196032FBF35
:101C300008953FB7F89480918E0390918F03A091FF
:101C40009003B091910326B5A89B05C02F3F19F0D2
:101C50000196A11DB11D3FBFBA2FA92F982F88272C
:101C6000BC01CD01620F711D811D911D42E0660F07
:101C7000771F881F991F4A95D1F708958F929F92D9
:101C8000AF92BF92CF92DF92EF92FF926B017C01F5
:101C90000E94190E4B015C01C114D104E104F1044E
:101CA000E9F00E94D60F0E94190E681979098A0975
:101CB0009B09683E73408105910570F321E0C21ACB
:101CC000D108E108F10888EE880E83E0981EA11C77
:101CD000B11CC114D104E104F10429F7FF90EF9085
:101CE000DF90CF90BF90AF909F908F9008957894A1
:101CF00084B5836084BD85B5836085BDEEE6F0E084
:101D0000808181608083E1E8F0E082E080838081EF
:101D100081608083E0E8F0E0808181608083E1EB96
:101D2000F0E0808184608083E0EBF0E0808181607E
:101D3000808387E880937A001092C10008958830EC
:101D400020F08D3008F48DE08E502091120190E447
:101D5000299F900111248770822B80937C008091B1
:101D60007A00806480937A0080917A0086FDFCCFAF
:101D7000809178009091790008951F93CF93DF931D
:101D8000182FEB0161E00E94430F209739F460E0C7
:101D9000812FDF91CF911F910C947F0FCF3FD10501
:101DA00011F461E0F5CFE12FF0E0EE59FE4FE49140
:101DB000E43031F140F4E230B1F0E330E1F0C0382A
:101DC000D1057CF7E4CFE83029F1E93059F1E5306D
:101DD000B1F780918000806280938000D0938B0067
:101DE000C0938A0004C084B5806884BDC7BDDF91FC
:101DF000CF911F91089584B5806284BDC8BDF7CF8F
:101E000080918000806880938000D0938900C09387
:101E10008800EDCF8091B00080688093B000C093BF
:101E2000B300E5CF8091B00080628093B000C09392
:101E3000B400DDCF843081F028F48230E9F08330C3
:101E4000F9F00895883071F0893091F08530B9F457
:101E5000809180008F7D03C0809180008F77809378
:101E6000800008958091B0008F778093B00008952E
:101E70008091B0008F7DF9CF84B58F7784BD0895B0
:101E800084B58F7DFBCFCF93DF9390E0FC01E758C3
:101E9000FE4F249180579E4FFC0184918823C9F006
:101EA00090E0880F991FFC01E554FE4FA591B49175
:101EB000FC01EF54FE4FC591D49161110DC09FB745
:101EC000F8948C91209582238C93888128232883F1
:101ED0009FBFDF91CF910895623051F49FB7F8947E
:101EE0003C91822F809583238C93E8812E2BEFCF1A
:101EF0008FB7F894EC912E2B2C938FBFEACF1F93C2
:101F0000CF93DF93282F30E0F901EE59FE4F8491F3
:101F1000F901E758FE4FD491F901E057FE4FC49103
:101F2000CC23A9F0162F81110E941A0FEC2FF0E09C
:101F3000EE0FFF1FEF54FE4FA591B4918FB7F894A9
:101F4000EC91111108C0D095DE23DC938FBFDF9197
:101F5000CF911F910895DE2BF8CFCF93DF93282FD9
:101F600030E0F901EE59FE4F8491F901E758FE4F38
:101F7000D491F901E057FE4FC491CC23A1F0811117
:101F80000E941A0FEC2FF0E0EE0FFF1FE955FE4FF5
:101F9000A591B491EC91ED2381E090E009F480E00B
:101FA000DF91CF91089580E090E0FACF08955058E6
:101FB000BB27AA270E94EF0F0C9462110E945411B4
:101FC00038F00E945B1120F039F49F3F19F426F499
:101FD0000C9451110EF4E095E7FB0C944B11E92F92
:101FE0000E94731158F3BA176207730784079507A5
:101FF00020F079F4A6F50C9495110EF4E0950B2ED3
:10200000BA2FA02D0B01B90190010C01CA01A0014A
:102010001124FF27591B99F0593F50F4503E68F1A5
:102020001A16F040A22F232F342F4427585FF3CFE6
:10203000469537952795A795F0405395C9F77EF4B7
:102040001F16BA0B620B730B840BBAF09150A1F000
:10205000FF0FBB1F661F771F881FC2F70EC0BA0F86
:10206000621F731F841F48F4879577956795B7950E
:10207000F7959E3F08F0B0CF9395880F08F0992709
:10208000EE0F9795879508950E94271108F481E037
:1020900008950E945D100C9462110E945B1158F02B
:1020A0000E94541140F029F45F3F29F00C944B1129
:1020B00051110C9496110C9451110E94731168F3F4
:1020C0009923B1F3552391F3951B550BBB27AA27F1
:1020D00062177307840738F09F5F5F4F220F331F2B
:1020E000441FAA1FA9F335D00E2E3AF0E0E832D0F3
:1020F00091505040E695001CCAF72BD0FE2F29D0F6
:10210000660F771F881FBB1F261737074807AB07C7
:10211000B0E809F0BB0B802DBF01FF2793585F4F3C
:102120003AF09E3F510578F00C944B110C949611A7
:102130005F3FE4F3983ED4F3869577956795B7951E
:10214000F7959F5FC9F7880F911D9695879597F929
:102150000895E1E0660F771F881FBB1F62177307A2
:102160008407BA0720F0621B730B840BBA0BEE1FB7
:1021700088F7E09508950E947B1188F09F5798F0AA
:10218000B92F9927B751B0F0E1F0660F771F881F7C
:10219000991F1AF0BA95C9F714C0B13091F00E9496
:1021A0009511B1E008950C949511672F782F882729
:1021B000B85F39F0B93FCCF3869577956795B395BD
:1021C000D9F73EF490958095709561957F4F8F4F2C
:1021D0009F4F0895E89409C097FB3EF49095809531
:1021E000709561957F4F8F4F9F4F9923A9F0F92FDD
:1021F00096E9BB279395F695879577956795B7955B
:10220000F111F8CFFAF4BB0F11F460FF1BC06F5F40
:102210007F4F8F4F9F4F16C0882311F096E911C052
:10222000772321F09EE8872F762F05C0662371F073
:1022300096E8862F70E060E02AF09A95660F771F87
:10224000881FDAF7880F9695879597F90895990F63
:102250000008550FAA0BE0E8FEEF16161706E80770
:10226000F907C0F012161306E407F50798F0621B91
:10227000730B840B950B39F40A2661F0232B242B66
:10228000252B21F408950A2609F4A140A6958FEF85
:10229000811D811D089597F99F6780E870E060E0D7
:1022A00008959FEF80EC089500240A9416161706EF
:1022B00018060906089500240A9412161306140637
:1022C00005060895092E0394000C11F4882352F09A
:1022D000BB0F40F4BF2B11F460FF04C06F5F7F4F52
:1022E0008F4F9F4F089557FD9058440F551F59F039
:1022F0005F3F71F04795880F97FB991F61F09F3FF3
:1023000079F087950895121613061406551FF2CF1B
:102310004695F1DF08C0161617061806991FF1CF6B
:1023200086957105610508940895E894BB27662792
:102330007727CB0197F908950E94271108F48FEFB2
:1023400008950E94B4110C9462110E94541138F047
:102350000E945B1120F0952311F00C944B110C940A
:10236000511111240C9496110E94731170F3959FD2
:10237000C1F3950F50E0551F629FF001729FBB277C
:10238000F00DB11D639FAA27F00DB11DAA1F649F18
:102390006627B00DA11D661F829F2227B00DA11DCB
:1023A000621F739FB00DA11D621F839FA00D611D51
:1023B000221F749F3327A00D611D231F849F600D72
:1023C000211D822F762F6A2F11249F5750409AF09B
:1023D000F1F088234AF0EE0FFF1FBB1F661F771F27
:1023E000881F91505040A9F79E3F510580F00C94F2
:1023F0004B110C9496115F3FE4F3983ED4F386950D
:1024000077956795B795F795E7959F5FC1F7FE2B91
:10241000880F911D9695879597F90895DB018F9305
:102420009F930E946E12BF91AF91A29F800D911D4C
:10243000A39F900DB29F900D11240895A1E21A2E32
:10244000AA1BBB1BFD010DC0AA1FBB1FEE1FFF1F58
:10245000A217B307E407F50720F0A21BB30BE40BA8
:10246000F50B661F771F881F991F1A9469F76095EF
:102470007095809590959B01AC01BD01CF010895A9
:10248000052E97FB1EF400940E94571257FD07D0AB
:102490000E941E1207FC03D04EF40C945712509564
:1024A0004095309521953F4F4F4F5F4F0895909540
:1024B0008095709561957F4F8F4F9F4F0895A29F94
:1024C000B001B39FC001A39F700D811D1124911D08
:1024D000B29F700D811D1124911D08950E945F12FD
:1024E000A59F900DB49F900DA49F800D911D112468
:1024F0000895EE0FFF1F0590F491E02D0994EF92DF
:102500000F931F93CF93DF93E80134E047FD34E14D
:10251000042E000C550B57FF03C0519541955109EE
:10252000E32E022F242FAE010E94D116CE01DF919F
:10253000CF911F910F91EF9008950F931F93CF9319
:10254000DF938230910510F482E090E0E0919903EE
:10255000F0919A0330E020E0B0E0A0E0309799F4E9
:102560002115310509F44AC0281B390B24303105E7
:10257000D8F58A819B816115710589F1FB019383EF
:102580008283FE0111C0408151810281138148176D
:102590005907E0F04817590799F4109761F012961F
:1025A0000C93129713961C933296CF01DF91CF9123
:1025B0001F910F9108950093990310939A03F4CFFC
:1025C0002115310551F04217530738F0A901DB01FD
:1025D0009A01BD01DF01F801C1CFEF01F9CF90935E
:1025E0009A0380939903CDCFFE01E20FF31F8193ED
:1025F00091932250310939832883D7CF20919703B3
:1026000030919803232B41F4209102013091030172
:10261000309398032093970320910001309101019A
:102620002115310541F42DB73EB740910401509179
:102630000501241B350BE0919703F0919803E217F5
:10264000F307A0F42E1B3F0B2817390778F0AC01D5
:102650004E5F5F4F2417350748F04E0F5F1F5093B2
:10266000980340939703819391939FCFF0E0E0E02C
:102670009CCFCF93DF930097E9F0FC013297138250
:102680001282A0919903B0919A03ED0130E020E00D
:102690001097A1F420813181820F931F209197031D
:1026A000309198032817390709F061C0F093980317
:1026B000E0939703DF91CF910895EA01CE17DF07EA
:1026C000E8F54A815B819E0141155105B1F7E901A9
:1026D000FB83EA8349915991C40FD51FEC17FD077D
:1026E00061F4808191810296840F951FE90199839D
:1026F0008883828193819B838A83F0E0E0E0129655
:102700008D919C9113970097B9F52D913C9111975C
:10271000CD010296820F931F209197033091980369
:102720002817390739F6309751F510929A0310920D
:102730009903B0939803A0939703BCCFD383C2832C
:1027400040815181840F951FC817D90761F44E5FEE
:102750005F4F88819981480F591F518340838A8137
:102760009B81938382832115310509F0B0CFF093CB
:102770009A03E09399039ECFFD01DC01C0CF138241
:102780001282D7CFB0E0A0E0E8ECF3E10C94BE19E0
:102790008C01009751F4CB010E949D128C01C8015D
:1027A000CDB7DEB7E0E10C94DA19FC01E60FF71FB4
:1027B0009C0122503109E217F30708F49DC0D901AA
:1027C000CD91DC911197C617D70798F0C530D10588
:1027D00030F3CE0104978617970708F3C61BD70B73
:1027E0002297C193D1936D937C93CF010E943913AB
:1027F000D6CF5B01AC1ABD0A4C018C0E9D1EA09178
:102800009903B0919A03512C412CF12CE12C109793
:1028100031F580919703909198038815990509F0F7
:102820005CC04616570608F058C080910001909190
:102830000101009741F48DB79EB74091040150917A
:102840000501841B950BE817F90708F055C0F093B4
:102850009803E0939703F90171836083A0CF8D9172
:102860009C91119712966C90129713967C901397E7
:10287000A815B90559F56C0142E0C40ED11CCA1463
:10288000DB0420F1AC014A195B09DA0112961597B5
:1028900080F06282738251834083D9016D937C936F
:1028A000E114F10471F0D7011396FC93EE931297A3
:1028B00076CF22968C0F9D1FF90191838083F301BF
:1028C000EFCFF0939A03E093990369CF4816590626
:1028D00008F42C017D01D3019ACFCB010E949D12F7
:1028E0007C01009749F0AE01B8010E947F14C80135
:1028F0000E943913870153CF10E000E050CFFB0155
:10290000DC0102C001900D9241505040D8F708956B
:10291000FB01DC0101900D920020E1F708954532A2
:10292000510520F4423010F00C949A14FB011082EF
:10293000CB010895BB274A3031F4992322F4BDE23C
:10294000909581959F4F0C94DE142532310520F42B
:10295000223010F00C94B014FA011082CA010895CC
:10296000BB27FA01A62F6217710581059105330B6C
:1029700030FB66F0AA27660F771F881F991FAA1FD2
:10298000A21710F0A21B63953850A9F7A05DAA33D7
:1029900008F0A95DA19336F7B111B1931082CA0175
:1029A0000C941E194532510520F4423010F00C945D
:1029B000DD14FB011082CB010895BB27FB015527D5
:1029C000AA27880F991FAA1FA41710F0A41B83958C
:1029D0005051B9F7A05DAA3308F0A95DA193009703
:1029E00079F7B111B1931192CB010C941E19ABE0A0
:1029F000B0E0EDEFF4E10C94BC197C013B018A01DD
:102A0000FC0117821682838181FFC8C1CE01019625
:102A10005C01F7019381F30193FD859193FF81910F
:102A20003F01882309F453C1853239F493FD859120
:102A300093FF81913F01853229F4B70190E00E9414
:102A40002E19E7CF912C212C312CFFE1F31538F012
:102A50008B3211F190F4803209F1833229F137FC85
:102A60003CC020ED280F2A3050F536FE20C08AE009
:102A7000989E200D1124922E06C08D3291F0803345
:102A800071F7689430F8F30193FD859193FF81917C
:102A90003F018111DACF21C0689431F8689432F88F
:102AA000F2CF689433F8EFCF689434F8ECCFEAE0D3
:102AB0002E9E200D1124222E689435F8E4CF8E32FC
:102AC00029F436FC04C1689436F8DDCF8C3619F44D
:102AD000689437F8D8CF8836B1F2982F9F7D9554F7
:102AE0009330E0F08336A1F18337C1F1833509F0EB
:102AF00063C02801F2E04F0E511CF801C080D18064
:102B0000692D70E036FC02C06FEF7FEFC6010E94B6
:102B100008194C01689437F882010AC00C5F1F4FF6
:102B2000FFE3F98388248394912C6501E89437F8B6
:102B300033FE2DC0522C8114910471F5552009F4F7
:102B400068CFB70180E290E00E942E195A94F6CF28
:102B5000F801808189830E5F1F4FE4CF2801F2E0E6
:102B60004F0E511CF801C080D180692D70E036FCF9
:102B700002C06FEF7FEFC6010E9413194C01820162
:102B8000D5CFB70180E290E00E942E192A94281434
:102B9000190409F0B0F7CECFF60137FC859137FE66
:102BA00081916F01B70190E00E942E1951105A9443
:102BB000F1E08F1A9108BFCF843619F0893609F0F9
:102BC00077C0F80137FE6BC060817181828193818B
:102BD0000C5F1F4FF32DFF763F2E97FF09C0909596
:102BE0008095709561957F4F8F4F9F4F689437F810
:102BF0002AE030E0A5010E945E19C82ECA188C2C6C
:102C0000432C36FE0CC0E89440F8C91440F434FE5E
:102C100005C032FC03C0F32DFE7E4F2E892C44FEEE
:102C200095C0FE01EC0DF11D8081803309F087C055
:102C3000242D297E422E842D8870582E43FC95C069
:102C400040FE8FC09C2C821418F42C0C922C9818E7
:102C500044FE91C0B70180E390E00E942E1942FE2D
:102C600009C088E790E041FE02C088E590E0B70126
:102C70000E942E19C91408F48AC0CA94D12C9FEF5F
:102C8000C91AD90ACA0CDB1CF60182916F01B7017F
:102C900090E00E942E19AC14BD04B1F74FCF6081B3
:102CA0007181072E000C880B990B0E5F1F4F92CF7E
:102CB000D32CE894D4F82AE030E0853739F1232D7D
:102CC000297FD22E8F3601F148F48835A9F0F7011B
:102CD000868197812B96E2E10C94D819803749F0D0
:102CE0008837A9F7D4FE02C06894D2F820E130E01A
:102CF0000DC06894D4F8F6CF34FE03C0822F8660EE
:102D0000D82E20E132E002C028E030E0F801D7FE02
:102D10000FC060817181828193810C5F1F4FA5017B
:102D20000E945E19C82ECA183D2CE89437F867CF68
:102D30006081718190E080E00E5F1F4FF0CF42FC18
:102D400002C0839478CF8394839475CF842D867842
:102D500009F471CFF6CFB70180E290E00E942E19FE
:102D600083948214C0F3512C73CF522C58188214C0
:102D700008F46ECFF8CF842D867809F47BCF8BE2F0
:102D800041FE80E247FC8DE2B70190E071CFB701D0
:102D900080E390E00E942E199A946CCF8FEF9FEF02
:102DA00099CFA9E0B0E0E7EDF6E10C94C2196A0111
:102DB000F22EB02E102FFBE3AF2EA01608F41BE36B
:102DC0001F5F012F27E0AE014F5F5F4F0E94301859
:102DD000BC018981982F9970913009F43FC09BE222
:102DE000E1FC04C09E2D9170E0FC3AC05E2D507154
:102DF000E82FE87083FF46C084E0911101C083E0B2
:102E0000EF2DE81B8F1508F0E0E0D6018E2F20E2B1
:102E1000552351F1992329F0D6019C93C6010196BF
:102E20006C0196012D5F3F4FE2FE24C08EE4D60177
:102E30008C9391E411969C93119712968C93D901DF
:102E40008E2F90E281111BC0E20FF32FF11D108233
:102E50008EEF9FEF2996ECE00C94DE199DE2C6CF31
:102E600090E2C4CF2D9381508111FCCFCE0ED11CA6
:102E7000E0E0D0CF8EE6D6018C9391E6DBCF9D9338
:102E80008150E0CF482F447082FF3DC084E0911113
:102E900001C083E08F1510F4EF2DE81BD6018E2FB3
:102EA00020E2552309F1992329F0D6019C93C6010C
:102EB00001966C0196012D5F3F4FE2FE1BC089E435
:102EC000D6018C938EE411968C93119786E412961A
:102ED0008C93D9018E2F90E2882309F4B5CF9D936E
:102EE0008150FACF2D9381508111FCCFCE0ED11C91
:102EF000E0E0D9CF89E6D6018C938EE611968C93CB
:102F0000119786E6E4CF9B0177FF02C030E020E016
:102F1000A1E0B0E0911102C0B0E0A0E0F90131966B
:102F2000AE0FBF1F8B2C912CBB2009F461C0540144
:102F3000EFEFAE1ABE0AAA0DBB1DFA161B0619F05A
:102F400014F04F2D4A1B511188C0E3FC59C0760183
:102F5000A42FB0E2A1114FC0C40ED11C992309F4D3
:102F60005BC040E0D6011196F60190836D015523B8
:102F700009F448C0012F060F9A81582F507184FF21
:102F800003C0913309F4015010160CF047C009300A
:102F900008F008E0EEE2FE2E5B01A01AB108850100
:102FA0009194819491082F3F320729F4D601FC9225
:102FB000F60131966F016217730794F10217130738
:102FC0007CF5DB01A21BB30BAA24A394B12CAC0E9D
:102FD000BD1EAA0DBB1D11968C9121503109D60141
:102FE000119628153905F4F0F60180836D01DBCFC9
:102FF000B12CA12CA0CFF701B1937F01A150AACF92
:103000009111B0CFD601942F50E302C05D9391503F
:103010009111FCCFC40ED11C40E0ACCF01E0BACF7F
:1030200080E3DBCF6217730731F4963388F495336E
:1030300011F4552369F0F6018083FD01842F90E29D
:10304000811108C0A40FB11D1C9290E080E002CF56
:1030500081E3F1CF91938150F3CF911183CF8ACF48
:10306000283008F027E03327DA01990F311D87FD5A
:10307000916000966105710539F432602E5F3D93D1
:1030800030E32A95E1F708959F3F30F080387105CD
:10309000610509F03C5F3C5F3D93913008F080682A
:1030A000911DDF93CF931F930F93FF92EF92192FF0
:1030B000987F9695E92F96959695E90FFF27EE5301
:1030C000FF4F99273327EE24FF24A701E70105903E
:1030D0000894079428F4360FE71EF81E491F511D67
:1030E000660F771F881F991F0694A1F70590079414
:1030F00028F4E70EF81E491F561FC11D770F881FC1
:10310000991F661F0694A1F70590079428F4F80EFE
:10311000491F561FC71FD11D880F991F661F771F94
:103120000694A1F70590079420F4490F561FC71F76
:10313000D81F990F661F771F881F0694A9F78491DF
:103140001095177041F0D695C79557954795F79408
:10315000E7941A95C1F7E8E6F0E0689415901591A8
:1031600035916591959105907FE27395E118F10A8B
:10317000430B560BC90BD009C0F7E10CF11E431FDE
:10318000561FC91FD01D7EF4703311F48A95E6CF07
:10319000E894015030F0080F0AF40027021708F4F1
:1031A000202F2395022F7A3328F079E37D932A95F7
:1031B000E9F710C07D932A9589F60694979567954F
:1031C000379517951794E118F10A430B560BC90B65
:1031D000D00998F023957E9173957A3308F070E3C7
:1031E0007C932013B8F77E9170617D9330F08395C6
:1031F00071E37D9370E32A95E1F71124EF90FF903E
:103200000F911F91CF91DF91992787FD9095089598
:10321000FC010590615070400110D8F780959095A1
:103220008E0F9F1F0895FC016150704001900110A6
:10323000D8F7809590958E0F9F1F0895DC01FC01B3
:10324000672F71917723E1F7329704C07C916D93DA
:1032500070836291AE17BF07C8F308950F931F9351
:10326000CF93DF93182F092FEB018B8181FD09C0CC
:103270001FEF0FEF812F902FDF91CF911F910F91B3
:10328000089582FF14C02E813F818C819D81281773
:1032900039073CF4E881F981CF010196998388834D
:1032A00010838E819F8101969F838E83E3CFE88573
:1032B000F985812F0995892BA1F3DACFFA01AA2785
:1032C000283051F1203181F1E8946F936E7F6E5F69
:1032D0007F4F8F4F9F4FAF4FB1E03ED0B4E03CD017
:1032E000670F781F891F9A1FA11D680F791F8A1FFA
:1032F000911DA11D6A0F711D811D911DA11D20D061
:1033000009F468943F912AE0269F11243019305D1A
:103310003193DEF6CF010895462F4770405D41930B
:10332000B3E00FD0C9F7F6CF462F4F70405D4A3358
:1033300018F0495D31FD4052419302D0A9F7EACF20
:10334000B4E0A6959795879577956795BA95C9F74F
:1033500000976105710508959B01AC010A2E069442
:103360005795479537952795BA95C9F7620F731FFB
:10337000841F951FA01D08952F923F924F925F9238
:103380006F927F928F929F92AF92BF92CF92DF9275
:10339000EF92FF920F931F93CF93DF93CDB7DEB7DA
:1033A000CA1BDB0B0FB6F894DEBF0FBECDBF09946E
:1033B0002A88398848885F846E847D848C849B84C5
:1033C000AA84B984C884DF80EE80FD800C811B81D3
:1033D000AA81B981CE0FD11D0FB6F894DEBF0FBE02
:0A33E000CDBFED010895F894FFCF72
:1033EA0000009B03800091018F019D019B012B0B23
:1033FA0000000156200056004E455720414E2052EB
:10340A00414E47453A20256420746F2025640A00FE
:10341A004F555400494E000A3D3D3D3D3D3D3D3D21
:10342A003D3D3D3D3D3D3D3D3D3D3D3D3D3D3D3DC2
:10343A003D3D3D3D3D3D3D3D3D3D3D3D3D3D3D3DB2
:10344A003D3D3D004750494F3A20007C2D20466CB7
:10345A0075783A20007C2D20547970653A20007CDA
:10346A002D20546563683A20007C2D2073746174A2
:10347A0065204F4E3A20007C2D20416E616C6F67AB
:10348A002046726571205B487A5D3A20007C2D20C7
:10349A00416E616C6F6720526573205B6269747359
:1034AA005D3A20007C2D2050574D5F43483A20005A
:1034BA007C2D20414E204D494E3A20007C2D204142
:1034CA004E204D41583A20007C2D20534554204D22
:1034DA00494E3A20007C2D20534554204D41583AFC
:1034EA0020003D3D3D3D3D3D3D3D3D3D3D3D3D3D5C
:1034FA003D3D3D3D3D3D3D3D3D3D3D3D3D3D3D3DF2
:10350A003D3D3D3D3D3D3D3D3D3D3D3D3D0A00008E
:10351A000000004F097D0AF1082F09C308DD08CF12
:04352A00080D0A007E
:00000001FF
